{
  "_format": "hh-sol-artifact-1",
  "contractName": "MockQieDex",
  "sourceName": "contracts/mocks/MockQieDex.sol",
  "abi": [
    {
      "inputs": [
        {
          "internalType": "address",
          "name": "qusdAddress",
          "type": "address"
        }
      ],
      "stateMutability": "nonpayable",
      "type": "constructor"
    },
    {
      "anonymous": false,
      "inputs": [
        {
          "indexed": true,
          "internalType": "address",
          "name": "sender",
          "type": "address"
        },
        {
          "indexed": true,
          "internalType": "address",
          "name": "recipient",
          "type": "address"
        },
        {
          "indexed": false,
          "internalType": "uint256",
          "name": "amountIn",
          "type": "uint256"
        },
        {
          "indexed": false,
          "internalType": "uint256",
          "name": "amountOut",
          "type": "uint256"
        }
      ],
      "name": "SwapExecuted",
      "type": "event"
    },
    {
      "inputs": [],
      "name": "qusd",
      "outputs": [
        {
          "internalType": "contract IERC20",
          "name": "",
          "type": "address"
        }
      ],
      "stateMutability": "view",
      "type": "function"
    },
    {
      "inputs": [
        {
          "internalType": "address",
          "name": "recipient",
          "type": "address"
        },
        {
          "internalType": "uint256",
          "name": "amountIn",
          "type": "uint256"
        }
      ],
      "name": "simulateSwap",
      "outputs": [
        {
          "internalType": "uint256",
          "name": "amountOut",
          "type": "uint256"
        }
      ],
      "stateMutability": "nonpayable",
      "type": "function"
    }
  ],
  "bytecode": "0x60a060405234801561001057600080fd5b5060405161036b38038061036b83398101604081905261002f91610040565b6001600160a01b0316608052610070565b60006020828403121561005257600080fd5b81516001600160a01b038116811461006957600080fd5b9392505050565b6080516102da610091600039600081816040015261013701526102da6000f3fe608060405234801561001057600080fd5b50600436106100365760003560e01c80632e9745ad1461003b578063c767362d1461007f575b600080fd5b6100627f000000000000000000000000000000000000000000000000000000000000000081565b6040516001600160a01b0390911681526020015b60405180910390f35b61009261008d366004610243565b6100a0565b604051908152602001610076565b60008082116101085760405162461bcd60e51b815260206004820152602960248201527f4d6f636b5169654465783a20616d6f756e74206d75737420626520677265617460448201526806572207468616e20360bc1b60648201526084015b60405180910390fd5b6040516323b872dd60e01b81523360048201526001600160a01b038481166024830152604482018490526000917f0000000000000000000000000000000000000000000000000000000000000000909116906323b872dd906064016020604051808303816000875af1158015610182573d6000803e3d6000fd5b505050506040513d601f19601f820116820180604052508101906101a6919061027b565b9050806101f55760405162461bcd60e51b815260206004820152601b60248201527f4d6f636b5169654465783a207472616e73666572206661696c6564000000000060448201526064016100ff565b60408051848152602081018590526001600160a01b0386169133917fdd36740e2a012d93061a0d99eaa9107860955de4e90027d3cf465a055026c407910160405180910390a3509092915050565b6000806040838503121561025657600080fd5b82356001600160a01b038116811461026d57600080fd5b946020939093013593505050565b60006020828403121561028d57600080fd5b8151801515811461029d57600080fd5b939250505056fea2646970667358221220be1efdeefcbeb0bcf1ca2846c7ecc5a6346c655ba267ef0235470dd76ca5aaf364736f6c63430008140033",
  "linkReferences": {},
  "deployedLinkReferences": {}
}