{
  "_format": "hh-sol-artifact-1",
  "contractName": "QieTreasury",
  "sourceName": "contracts/QieTreasury.sol",
  "abi": [
    {
      "inputs": [
        {
          "internalType": "address",
          "name": "_qusdToken",
          "type": "address"
        },
        {
          "internalType": "address",
          "name": "initialOwner",
          "type": "address"
        }
      ],
      "stateMutability": "nonpayable",
      "type": "constructor"
    },
    {
      "inputs": [
        {
          "internalType": "address",
          "name": "owner",
          "type": "address"
        }
      ],
      "name": "OwnableInvalidOwner",
      "type": "error"
    },
    {
      "inputs": [
        {
          "internalType": "address",
          "name": "account",
          "type": "address"
        }
      ],
      "name": "OwnableUnauthorizedAccount",
      "type": "error"
    },
    {
      "anonymous": false,
      "inputs": [
        {
          "indexed": true,
          "internalType": "address",
          "name": "sender",
          "type": "address"
        },
        {
          "indexed": true,
          "internalType": "address",
          "name": "recipient",
          "type": "address"
        },
        {
          "indexed": false,
          "internalType": "uint256",
          "name": "amountQUSD",
          "type": "uint256"
        },
        {
          "indexed": false,
          "internalType": "string",
          "name": "targetCurrency",
          "type": "string"
        },
        {
          "indexed": false,
          "internalType": "uint256",
          "name": "timestamp",
          "type": "uint256"
        }
      ],
      "name": "CrossBorderFulfillmentRequested",
      "type": "event"
    },
    {
      "anonymous": false,
      "inputs": [
        {
          "indexed": true,
          "internalType": "address",
          "name": "depositor",
          "type": "address"
        },
        {
          "indexed": false,
          "internalType": "uint256",
          "name": "amountQIE",
          "type": "uint256"
        },
        {
          "indexed": false,
          "internalType": "uint256",
          "name": "amountQUSD",
          "type": "uint256"
        }
      ],
      "name": "NativeDeposited",
      "type": "event"
    },
    {
      "anonymous": false,
      "inputs": [
        {
          "indexed": true,
          "internalType": "address",
          "name": "previousOwner",
          "type": "address"
        },
        {
          "indexed": true,
          "internalType": "address",
          "name": "newOwner",
          "type": "address"
        }
      ],
      "name": "OwnershipTransferred",
      "type": "event"
    },
    {
      "inputs": [],
      "name": "EXCHANGE_RATE",
      "outputs": [
        {
          "internalType": "uint256",
          "name": "",
          "type": "uint256"
        }
      ],
      "stateMutability": "view",
      "type": "function"
    },
    {
      "inputs": [],
      "name": "depositNativeForStable",
      "outputs": [],
      "stateMutability": "payable",
      "type": "function"
    },
    {
      "inputs": [
        {
          "internalType": "address",
          "name": "recipient",
          "type": "address"
        },
        {
          "internalType": "uint256",
          "name": "amountQUSD",
          "type": "uint256"
        },
        {
          "internalType": "string",
          "name": "targetCurrency",
          "type": "string"
        }
      ],
      "name": "executeCrossBorderTransfer",
      "outputs": [],
      "stateMutability": "nonpayable",
      "type": "function"
    },
    {
      "inputs": [],
      "name": "owner",
      "outputs": [
        {
          "internalType": "address",
          "name": "",
          "type": "address"
        }
      ],
      "stateMutability": "view",
      "type": "function"
    },
    {
      "inputs": [],
      "name": "qusdToken",
      "outputs": [
        {
          "internalType": "contract QUSD",
          "name": "",
          "type": "address"
        }
      ],
      "stateMutability": "view",
      "type": "function"
    },
    {
      "inputs": [],
      "name": "renounceOwnership",
      "outputs": [],
      "stateMutability": "nonpayable",
      "type": "function"
    },
    {
      "inputs": [
        {
          "internalType": "address",
          "name": "newOwner",
          "type": "address"
        }
      ],
      "name": "transferOwnership",
      "outputs": [],
      "stateMutability": "nonpayable",
      "type": "function"
    },
    {
      "inputs": [
        {
          "internalType": "address payable",
          "name": "to",
          "type": "address"
        },
        {
          "internalType": "uint256",
          "name": "amount",
          "type": "uint256"
        }
      ],
      "name": "withdrawNative",
      "outputs": [],
      "stateMutability": "nonpayable",
      "type": "function"
    },
    {
      "stateMutability": "payable",
      "type": "receive"
    }
  ],
  "bytecode": "0x60a060405234801561001057600080fd5b5060405161091c38038061091c83398101604081905261002f916100e6565b806001600160a01b03811661005e57604051631e4fbdf760e01b81526000600482015260240160405180910390fd5b6100678161007a565b50506001600160a01b0316608052610119565b600080546001600160a01b038381166001600160a01b0319831681178455604051919092169283917f8be0079c531659141344cd1fd0a4f28419497f9722a3daafe3b4186f6b6457e09190a35050565b80516001600160a01b03811681146100e157600080fd5b919050565b600080604083850312156100f957600080fd5b610102836100ca565b9150610110602084016100ca565b90509250929050565b6080516107db6101416000396000818160ee0152818161038a015261050101526107db6000f3fe60806040526004361061007f5760003560e01c806381dc6da31161004e57806381dc6da31461013d57806382631b09146101455780638da5cb5b14610165578063f2fde38b1461018357600080fd5b806307b18bde1461008b57806314a8bd0d146100ad5780633a534129146100dc578063715018a61461012857600080fd5b3661008657005b600080fd5b34801561009757600080fd5b506100ab6100a636600461068c565b6101a3565b005b3480156100b957600080fd5b506100c9670de0b6b3a764000081565b6040519081526020015b60405180910390f35b3480156100e857600080fd5b506101107f000000000000000000000000000000000000000000000000000000000000000081565b6040516001600160a01b0390911681526020016100d3565b34801561013457600080fd5b506100ab610308565b6100ab61031c565b34801561015157600080fd5b506100ab6101603660046106b8565b61042c565b34801561017157600080fd5b506000546001600160a01b0316610110565b34801561018f57600080fd5b506100ab61019e366004610741565b6105bc565b6101ab6105fa565b6001600160a01b0382166102065760405162461bcd60e51b815260206004820152601c60248201527f51696554726561737572793a20496e76616c696420616464726573730000000060448201526064015b60405180910390fd5b804710156102605760405162461bcd60e51b815260206004820152602160248201527f51696554726561737572793a20496e73756666696369656e742062616c616e636044820152606560f81b60648201526084016101fd565b6000826001600160a01b03168260405160006040518083038185875af1925050503d80600081146102ad576040519150601f19603f3d011682016040523d82523d6000602084013e6102b2565b606091505b50509050806103035760405162461bcd60e51b815260206004820152601c60248201527f51696554726561737572793a205472616e73666572206661696c65640000000060448201526064016101fd565b505050565b6103106105fa565b61031a6000610627565b565b6000341161036c5760405162461bcd60e51b815260206004820152601a60248201527f51696554726561737572793a204d7573742073656e642051494500000000000060448201526064016101fd565b6040516340c10f1960e01b81523360048201523460248201819052907f00000000000000000000000000000000000000000000000000000000000000006001600160a01b0316906340c10f1990604401600060405180830381600087803b1580156103d657600080fd5b505af11580156103ea573d6000803e3d6000fd5b505060408051348152602081018590523393507f9faa4ec7a002abcd4e2cbc7a2a50dc867171c45200d8bede177a5e634aa7eeb192500160405180910390a250565b6000831161048f5760405162461bcd60e51b815260206004820152602a60248201527f51696554726561737572793a20416d6f756e74206d75737420626520677265616044820152690746572207468616e20360b41b60648201526084016101fd565b6001600160a01b0384166104e55760405162461bcd60e51b815260206004820152601e60248201527f51696554726561737572793a20496e76616c696420726563697069656e74000060448201526064016101fd565b604051632770a7eb60e21b8152336004820152602481018490527f00000000000000000000000000000000000000000000000000000000000000006001600160a01b031690639dc29fac90604401600060405180830381600087803b15801561054d57600080fd5b505af1158015610561573d6000803e3d6000fd5b50505050836001600160a01b0316336001600160a01b03167fa4c8248cf0bbc4a5d56c0ce46f838ddff16a7e8978b514d17441da4c2ded359c858585426040516105ae9493929190610765565b60405180910390a350505050565b6105c46105fa565b6001600160a01b0381166105ee57604051631e4fbdf760e01b8152600060048201526024016101fd565b6105f781610627565b50565b6000546001600160a01b0316331461031a5760405163118cdaa760e01b81523360048201526024016101fd565b600080546001600160a01b038381166001600160a01b0319831681178455604051919092169283917f8be0079c531659141344cd1fd0a4f28419497f9722a3daafe3b4186f6b6457e09190a35050565b6001600160a01b03811681146105f757600080fd5b6000806040838503121561069f57600080fd5b82356106aa81610677565b946020939093013593505050565b600080600080606085870312156106ce57600080fd5b84356106d981610677565b935060208501359250604085013567ffffffffffffffff808211156106fd57600080fd5b818701915087601f83011261071157600080fd5b81358181111561072057600080fd5b88602082850101111561073257600080fd5b95989497505060200194505050565b60006020828403121561075357600080fd5b813561075e81610677565b9392505050565b848152606060208201528260608201528284608083013760006080848301015260006080601f19601f86011683010190508260408301529594505050505056fea2646970667358221220fd09df1ab124c3036818f1ee40d2611ff8486db06f0f25de424673bd324ef46764736f6c63430008140033",
  "linkReferences": {},
  "deployedLinkReferences": {}
}