{
  "_format": "hh-sol-artifact-1",
  "contractName": "QieTreasury",
  "sourceName": "contracts/QieTreasury.sol",
  "abi": [
    {
      "inputs": [
        {
          "internalType": "address",
          "name": "_qusdToken",
          "type": "address"
        },
        {
          "internalType": "address",
          "name": "_oracle",
          "type": "address"
        },
        {
          "internalType": "address",
          "name": "initialOwner",
          "type": "address"
        }
      ],
      "stateMutability": "nonpayable",
      "type": "constructor"
    },
    {
      "inputs": [
        {
          "internalType": "address",
          "name": "owner",
          "type": "address"
        }
      ],
      "name": "OwnableInvalidOwner",
      "type": "error"
    },
    {
      "inputs": [
        {
          "internalType": "address",
          "name": "account",
          "type": "address"
        }
      ],
      "name": "OwnableUnauthorizedAccount",
      "type": "error"
    },
    {
      "anonymous": false,
      "inputs": [
        {
          "indexed": true,
          "internalType": "address",
          "name": "sender",
          "type": "address"
        },
        {
          "indexed": true,
          "internalType": "address",
          "name": "recipient",
          "type": "address"
        },
        {
          "indexed": false,
          "internalType": "uint256",
          "name": "amountQUSD",
          "type": "uint256"
        },
        {
          "indexed": false,
          "internalType": "string",
          "name": "targetCurrency",
          "type": "string"
        },
        {
          "indexed": false,
          "internalType": "uint256",
          "name": "timestamp",
          "type": "uint256"
        }
      ],
      "name": "CrossBorderFulfillmentRequested",
      "type": "event"
    },
    {
      "anonymous": false,
      "inputs": [
        {
          "indexed": true,
          "internalType": "address",
          "name": "depositor",
          "type": "address"
        },
        {
          "indexed": false,
          "internalType": "uint256",
          "name": "amountQIE",
          "type": "uint256"
        },
        {
          "indexed": false,
          "internalType": "uint256",
          "name": "amountQUSD",
          "type": "uint256"
        }
      ],
      "name": "NativeDeposited",
      "type": "event"
    },
    {
      "anonymous": false,
      "inputs": [
        {
          "indexed": true,
          "internalType": "address",
          "name": "previousOwner",
          "type": "address"
        },
        {
          "indexed": true,
          "internalType": "address",
          "name": "newOwner",
          "type": "address"
        }
      ],
      "name": "OwnershipTransferred",
      "type": "event"
    },
    {
      "inputs": [],
      "name": "depositNativeForStable",
      "outputs": [],
      "stateMutability": "payable",
      "type": "function"
    },
    {
      "inputs": [
        {
          "internalType": "address",
          "name": "recipient",
          "type": "address"
        },
        {
          "internalType": "uint256",
          "name": "amountQUSD",
          "type": "uint256"
        },
        {
          "internalType": "string",
          "name": "targetCurrency",
          "type": "string"
        }
      ],
      "name": "executeCrossBorderTransfer",
      "outputs": [],
      "stateMutability": "nonpayable",
      "type": "function"
    },
    {
      "inputs": [],
      "name": "oracle",
      "outputs": [
        {
          "internalType": "contract MockQieOracle",
          "name": "",
          "type": "address"
        }
      ],
      "stateMutability": "view",
      "type": "function"
    },
    {
      "inputs": [],
      "name": "owner",
      "outputs": [
        {
          "internalType": "address",
          "name": "",
          "type": "address"
        }
      ],
      "stateMutability": "view",
      "type": "function"
    },
    {
      "inputs": [],
      "name": "qusdToken",
      "outputs": [
        {
          "internalType": "contract QUSD",
          "name": "",
          "type": "address"
        }
      ],
      "stateMutability": "view",
      "type": "function"
    },
    {
      "inputs": [],
      "name": "renounceOwnership",
      "outputs": [],
      "stateMutability": "nonpayable",
      "type": "function"
    },
    {
      "inputs": [
        {
          "internalType": "address",
          "name": "newOwner",
          "type": "address"
        }
      ],
      "name": "transferOwnership",
      "outputs": [],
      "stateMutability": "nonpayable",
      "type": "function"
    },
    {
      "inputs": [
        {
          "internalType": "address payable",
          "name": "to",
          "type": "address"
        },
        {
          "internalType": "uint256",
          "name": "amount",
          "type": "uint256"
        }
      ],
      "name": "withdrawNative",
      "outputs": [],
      "stateMutability": "nonpayable",
      "type": "function"
    },
    {
      "stateMutability": "payable",
      "type": "receive"
    }
  ],
  "bytecode": "0x60a060405234801561001057600080fd5b50604051610a89380380610a8983398101604081905261002f916100fd565b806001600160a01b03811661005e57604051631e4fbdf760e01b81526000600482015260240160405180910390fd5b61006781610091565b50506001600160a01b03918216608052600180546001600160a01b03191691909216179055610140565b600080546001600160a01b038381166001600160a01b0319831681178455604051919092169283917f8be0079c531659141344cd1fd0a4f28419497f9722a3daafe3b4186f6b6457e09190a35050565b80516001600160a01b03811681146100f857600080fd5b919050565b60008060006060848603121561011257600080fd5b61011b846100e1565b9250610129602085016100e1565b9150610137604085016100e1565b90509250925092565b6080516109216101686000396000818160bf0152818161046901526105e101526109216000f3fe60806040526004361061007f5760003560e01c806381dc6da31161004e57806381dc6da31461013257806382631b091461013a5780638da5cb5b1461015a578063f2fde38b1461017857600080fd5b806307b18bde1461008b5780633a534129146100ad578063715018a6146100fd5780637dc0d1d01461011257600080fd5b3661008657005b600080fd5b34801561009757600080fd5b506100ab6100a636600461076c565b610198565b005b3480156100b957600080fd5b506100e17f000000000000000000000000000000000000000000000000000000000000000081565b6040516001600160a01b03909116815260200160405180910390f35b34801561010957600080fd5b506100ab6102fd565b34801561011e57600080fd5b506001546100e1906001600160a01b031681565b6100ab610311565b34801561014657600080fd5b506100ab610155366004610798565b61050c565b34801561016657600080fd5b506000546001600160a01b03166100e1565b34801561018457600080fd5b506100ab610193366004610821565b61069c565b6101a06106da565b6001600160a01b0382166101fb5760405162461bcd60e51b815260206004820152601c60248201527f51696554726561737572793a20496e76616c696420616464726573730000000060448201526064015b60405180910390fd5b804710156102555760405162461bcd60e51b815260206004820152602160248201527f51696554726561737572793a20496e73756666696369656e742062616c616e636044820152606560f81b60648201526084016101f2565b6000826001600160a01b03168260405160006040518083038185875af1925050503d80600081146102a2576040519150601f19603f3d011682016040523d82523d6000602084013e6102a7565b606091505b50509050806102f85760405162461bcd60e51b815260206004820152601c60248201527f51696554726561737572793a205472616e73666572206661696c65640000000060448201526064016101f2565b505050565b6103056106da565b61030f6000610707565b565b600034116103615760405162461bcd60e51b815260206004820152601a60248201527f51696554726561737572793a204d7573742073656e642051494500000000000060448201526064016101f2565b60015460408051634c6afee560e11b815290516000926001600160a01b0316916398d5fdca9160048083019260209291908290030181865afa1580156103ab573d6000803e3d6000fd5b505050506040513d601f19601f820116820180604052508101906103cf9190610845565b90506000811361042b5760405162461bcd60e51b815260206004820152602160248201527f51696554726561737572793a20496e76616c6964206f7261636c6520707269636044820152606560f81b60648201526084016101f2565b6000670de0b6b3a7640000610440833461085e565b61044a9190610889565b6040516340c10f1960e01b8152336004820152602481018290529091507f00000000000000000000000000000000000000000000000000000000000000006001600160a01b0316906340c10f1990604401600060405180830381600087803b1580156104b557600080fd5b505af11580156104c9573d6000803e3d6000fd5b505060408051348152602081018590523393507f9faa4ec7a002abcd4e2cbc7a2a50dc867171c45200d8bede177a5e634aa7eeb192500160405180910390a25050565b6000831161056f5760405162461bcd60e51b815260206004820152602a60248201527f51696554726561737572793a20416d6f756e74206d75737420626520677265616044820152690746572207468616e20360b41b60648201526084016101f2565b6001600160a01b0384166105c55760405162461bcd60e51b815260206004820152601e60248201527f51696554726561737572793a20496e76616c696420726563697069656e74000060448201526064016101f2565b604051632770a7eb60e21b8152336004820152602481018490527f00000000000000000000000000000000000000000000000000000000000000006001600160a01b031690639dc29fac90604401600060405180830381600087803b15801561062d57600080fd5b505af1158015610641573d6000803e3d6000fd5b50505050836001600160a01b0316336001600160a01b03167fa4c8248cf0bbc4a5d56c0ce46f838ddff16a7e8978b514d17441da4c2ded359c8585854260405161068e94939291906108ab565b60405180910390a350505050565b6106a46106da565b6001600160a01b0381166106ce57604051631e4fbdf760e01b8152600060048201526024016101f2565b6106d781610707565b50565b6000546001600160a01b0316331461030f5760405163118cdaa760e01b81523360048201526024016101f2565b600080546001600160a01b038381166001600160a01b0319831681178455604051919092169283917f8be0079c531659141344cd1fd0a4f28419497f9722a3daafe3b4186f6b6457e09190a35050565b6001600160a01b03811681146106d757600080fd5b6000806040838503121561077f57600080fd5b823561078a81610757565b946020939093013593505050565b600080600080606085870312156107ae57600080fd5b84356107b981610757565b935060208501359250604085013567ffffffffffffffff808211156107dd57600080fd5b818701915087601f8301126107f157600080fd5b81358181111561080057600080fd5b88602082850101111561081257600080fd5b95989497505060200194505050565b60006020828403121561083357600080fd5b813561083e81610757565b9392505050565b60006020828403121561085757600080fd5b5051919050565b808202811582820484141761088357634e487b7160e01b600052601160045260246000fd5b92915050565b6000826108a657634e487b7160e01b600052601260045260246000fd5b500490565b848152606060208201528260608201528284608083013760006080848301015260006080601f19601f86011683010190508260408301529594505050505056fea2646970667358221220b32ceebcc4dace59ddc9283130f739f157e6be4ce420fc9c26f11e15cefb6aae64736f6c63430008140033",
  "linkReferences": {},
  "deployedLinkReferences": {}
}