{
  "_format": "hh-sol-artifact-1",
  "contractName": "MockQieOracle",
  "sourceName": "contracts/mocks/MockQieOracle.sol",
  "abi": [
    {
      "inputs": [
        {
          "internalType": "int256",
          "name": "initialPrice",
          "type": "int256"
        },
        {
          "internalType": "uint8",
          "name": "initialDecimals",
          "type": "uint8"
        }
      ],
      "stateMutability": "nonpayable",
      "type": "constructor"
    },
    {
      "inputs": [
        {
          "internalType": "address",
          "name": "owner",
          "type": "address"
        }
      ],
      "name": "OwnableInvalidOwner",
      "type": "error"
    },
    {
      "inputs": [
        {
          "internalType": "address",
          "name": "account",
          "type": "address"
        }
      ],
      "name": "OwnableUnauthorizedAccount",
      "type": "error"
    },
    {
      "anonymous": false,
      "inputs": [
        {
          "indexed": true,
          "internalType": "address",
          "name": "previousOwner",
          "type": "address"
        },
        {
          "indexed": true,
          "internalType": "address",
          "name": "newOwner",
          "type": "address"
        }
      ],
      "name": "OwnershipTransferred",
      "type": "event"
    },
    {
      "anonymous": false,
      "inputs": [
        {
          "indexed": true,
          "internalType": "int256",
          "name": "newPrice",
          "type": "int256"
        },
        {
          "indexed": false,
          "internalType": "uint256",
          "name": "timestamp",
          "type": "uint256"
        }
      ],
      "name": "PriceUpdated",
      "type": "event"
    },
    {
      "inputs": [],
      "name": "decimals",
      "outputs": [
        {
          "internalType": "uint8",
          "name": "",
          "type": "uint8"
        }
      ],
      "stateMutability": "view",
      "type": "function"
    },
    {
      "inputs": [],
      "name": "getPrice",
      "outputs": [
        {
          "internalType": "int256",
          "name": "",
          "type": "int256"
        }
      ],
      "stateMutability": "view",
      "type": "function"
    },
    {
      "inputs": [],
      "name": "owner",
      "outputs": [
        {
          "internalType": "address",
          "name": "",
          "type": "address"
        }
      ],
      "stateMutability": "view",
      "type": "function"
    },
    {
      "inputs": [],
      "name": "renounceOwnership",
      "outputs": [],
      "stateMutability": "nonpayable",
      "type": "function"
    },
    {
      "inputs": [
        {
          "internalType": "int256",
          "name": "newPrice",
          "type": "int256"
        }
      ],
      "name": "setPrice",
      "outputs": [],
      "stateMutability": "nonpayable",
      "type": "function"
    },
    {
      "inputs": [
        {
          "internalType": "address",
          "name": "newOwner",
          "type": "address"
        }
      ],
      "name": "transferOwnership",
      "outputs": [],
      "stateMutability": "nonpayable",
      "type": "function"
    }
  ],
  "bytecode": "0x60a060405234801561001057600080fd5b506040516103a93803806103a983398101604081905261002f916100c0565b338061005557604051631e4fbdf760e01b81526000600482015260240160405180910390fd5b61005e81610070565b5060019190915560ff166080526100f6565b600080546001600160a01b038381166001600160a01b0319831681178455604051919092169283917f8be0079c531659141344cd1fd0a4f28419497f9722a3daafe3b4186f6b6457e09190a35050565b600080604083850312156100d357600080fd5b82519150602083015160ff811681146100eb57600080fd5b809150509250929050565b6080516102996101106000396000606c01526102996000f3fe608060405234801561001057600080fd5b50600436106100625760003560e01c8063313ce56714610067578063715018a6146100a55780638da5cb5b146100af57806398d5fdca146100ca578063f2fde38b146100db578063f7a30806146100ee575b600080fd5b61008e7f000000000000000000000000000000000000000000000000000000000000000081565b60405160ff90911681526020015b60405180910390f35b6100ad610101565b005b6000546040516001600160a01b03909116815260200161009c565b60015460405190815260200161009c565b6100ad6100e936600461021a565b610115565b6100ad6100fc36600461024a565b610158565b61010961019d565b61011360006101ca565b565b61011d61019d565b6001600160a01b03811661014c57604051631e4fbdf760e01b8152600060048201526024015b60405180910390fd5b610155816101ca565b50565b61016061019d565b600181905560405142815281907fdb6fb3cf4cc5fb760bcd63b958a53b2396776dff32c063188e864296541e76bd9060200160405180910390a250565b6000546001600160a01b031633146101135760405163118cdaa760e01b8152336004820152602401610143565b600080546001600160a01b038381166001600160a01b0319831681178455604051919092169283917f8be0079c531659141344cd1fd0a4f28419497f9722a3daafe3b4186f6b6457e09190a35050565b60006020828403121561022c57600080fd5b81356001600160a01b038116811461024357600080fd5b9392505050565b60006020828403121561025c57600080fd5b503591905056fea2646970667358221220f74fcffdc7555e9e5dbcd7ff3b2656d4a66bd4515fbed724170c8487fdc1f06064736f6c63430008140033",
  "linkReferences": {},
  "deployedLinkReferences": {}
}